:020000040800F2
:10000000980A0020D50000084D1700088713000843
:1000100000000000000000000000000000000000E0
:10002000000000000000000000000000F9180008B7
:1000300000000000000000006D17000825190008EE
:10004000E700000800000000E7000008E7000008E3
:10005000E7000008E7000008E70000087901000851
:1000600000000000E7000008E7000008E7000008C3
:10007000E7000008A9190008E700000800000000D8
:10008000E7000008000000000000000099190008C7
:1000900000000000E7000008E7000008E700000893
:1000A000E7000008E7000008E7000008E700000894
:1000B000E700000800000000000000000000000051
:1000C0000348854600F046F800480047C51C000874
:1000D000980A00200448804704480047FEE7FEE7EE
:1000E000FEE7FEE7FEE7FEE795190008C1000008FD
:1000F000D2B201E00270401C491EFBD270470022C0
:10010000F6E710B513460A4604461946FFF7F0FF16
:10011000204610BD70B50446002903D000202022DF
:10012000012310E0002801D00020C043C046C04693
:100130000DE02546D5408D4205D30D469540641B04
:100140001D46954040191546521E002DF1DC2146F2
:1001500070BD0000064C0125064E05E0E36807CCA3
:100160002B430C3C98471034B442F7D3FFF7ACFF55
:100170000C1F00082C1F000880B506480178491C98
:10018000CAB2052A00D9002101700120000300F045
:1001900087FA80BD9C010020EFF3108072B6FEE765
:1001A000DF490978002909D08103490E8E4A515C44
:1001B0004005400FC14001200840704700207047B3
:1001C00070B5D74DAE6900F02DF9044601F08BFCF7
:1001D000B042F7D1844201D201F0D6F8204670BD7A
:1001E00070B514460D460646FFF7DAFF002811D019
:1001F000FFF7E6FF0146EFF30580421E9041C00481
:10020000B2B210180322120680182A46234600F0C4
:1002100003F870BD012070BDF0B585B00191C90F24
:10022000090701430392D00F400708430293D90FF7
:100230008907014304910620C6430F20040500F0FE
:1002400069F98203224004990A4303218906114374
:100250003F22024015016648441927460C373846AC
:1002600001F0A6F80146400102D4761CE5D31CE05B
:100270001048019B0340212292065140421C0A4033
:10028000D3185B4E7351029B0340D318039D054066
:1002900050196060A360384601F012FC002804D0B9
:1002A00001F07EF8012005B0F0BD01F073F80020E8
:1002B00005B0F0BDFFFFFF7FF0B582B000900023D6
:1002C0000191FE291FD8FE2A1DD80021464C0D465B
:1002D00003E0491C2035042914D0009ECE40F607C7
:1002E000F7D001989042F4D8019E072737400123A8
:1002F000BB40F7087F19E05D1843E055761C964235
:10030000F3D9E6E70123184602B0F0BDF0B583B09B
:100310000F460646824D00242C7033488021FFF79B
:10032000EEFE01F051FC2A6A30498A42029605D15C
:100330006988814205D1E869461C04E06880296229
:1003400000E068800126EE61012E19D1002068606E
:10035000A860E8606870012081022548FFF7CFFEA1
:10036000012E1CD100F066F806460028204601D078
:1003700000F05EF82C616861AC61002E12D130E0B3
:100380001B480C30402102E01030491EE8D00268C2
:100390005301F9D503239B069A430260F4E7012633
:1003A000002E1ED001970027FE24029839462246CF
:1003B000FFF782FF0F20EF210A46FFF77DFF0420A1
:1003C00021462246FFF778FFFFF7FAFE0146EA6969
:1003D00008483B46FFF720FF0198002801D000F0B5
:1003E0000BF8304603B0F0BDC00500206B27A5E137
:1003F000C001002000FF000380B5494801780029B2
:1004000001D0012080BD01210170FFF7D9FE014616
:10041000034800221346FFF7FFFE012080BDC046BF
:1004200001FF000306490868421C0A607047C04685
:100430000020704702480021016001207047C0463B
:100440006406002081490A68024301200004104329
:10045000086070477D480268034B1340C900194388
:10046000024A0A430260704705E0FEFF02000100F5
:10047000B0B576490C68012525430D600260BFF3D5
:100480006F8F4360B0BDC046B0B5012293046F4A80
:1004900014681C431460EFF31083EFF3108472B6FA
:1004A000002420C920C0651C3F2C2C46F9D3101F06
:1004B0000068C003FBD483F31088B0BD70B5044658
:1004C00000F0DEF90619114D2868C00305D500F0CB
:1004D000D7F9B042F8D3032070BD28680C494A1CF4
:1004E0002A60084003D058494860012070BD00F0E0
:1004F000C7F904192868400305D500F0C1F9A042E6
:10050000F8D3032070BD002070BDC046102002400B
:10051000FA83000080B50248001D01F037FB80BD62
:1005200040060020B0B5044600F0AAF90546601C5C
:1005300002D0F4480078041900F0A2F9401BA04250
:10054000FAD3B0BDF0B583B005463F4C2078012802
:1005500002D1022003B0F0BD0291002767600120A4
:1005600020707D20C6003046FFF7A8FF00282BD161
:10057000042169602968042906D10420FFF762FF7D
:100580003046FFF79BFF1FE00197F943029A116085
:10059000AF68E968C9198F4210D23946FFF75AFF90
:1005A0003046FFF78BFF002806D1A968EA6851188A
:1005B0007F1C8F42F1D301E002990F6023490A6842
:1005C00002239A430A60019F277003B0F0BDC04622
:1005D0000120C0071D490A6802430A600868C04339
:1005E000C00F7047F0B585B00F46174E317801291E
:1005F00002D1022005B0F0BD0293039204900025C1
:100600007560012030707D20C4002046FFF756FF42
:10061000002816D101950498012805D13846039A7F
:10062000029BFFF725FF03E038460399FFF72CFFF5
:100630002046FFF743FF05490A68049B9A430A6076
:10064000019D357005B0F0BD680600201420024001
:100650000648C168002901D40020704704490160A0
:1006600004490160C068C00F7047C04608200240BE
:1006700023016745AB89EFCD80B50121090388428D
:1006800008D10548007805494A68824202D048608E
:1006900001F0FEFA80BDC0469C01002084060020C7
:1006A000B0B50446074D2868204203D02C60204690
:1006B00000F00AF86868204203D06C602046FFF71B
:1006C000DBFFB0BD0C18024070470000F0B588B0E9
:1006D0000B460968002900D1B7E002465C48824217
:1006E00001D0052000E003200090012400200546F1
:1006F00006900746019407920FE03843039F56493E
:10070000086019680846E040069E361D0696AD1C36
:100710000837641C002800D197E0661E01980596F2
:10072000B04001400291ECD0039719465B68032664
:100730001F46049637407E1E012E13D8049EAE40FD
:10074000079A9268B243CE68AE401643079A966005
:10075000DA06D20F059B9A40079B5B6883431343DD
:10076000079A5360032F0B46049E1ED03046A840C4
:10077000079AD26882439868A8401043079AD060CD
:10078000022F12D11C20069A10400F268640059A8F
:10079000D2089200079B9A18136AB3430E698640E9
:1007A0001E430B461662049E079A3046A840116805
:1007B0008143586882033040A84008430799086085
:1007C000900F079A039F9CD0182139400F20884032
:1007D000059FB7431F4EF619376E874360360520D5
:1007E000000782420AD01D48824205D01C4882423E
:1007F000009804D1022002E0012000E0002088409F
:1008000038433060134800685E68F10202D5029FE9
:10081000384301E0029FB8430E4908604868B102BE
:1008200001D5384300E0B8430A4948600A484068A7
:10083000B10301D5384300E0B84307494860086870
:10084000F10300D559E7B84358E708B0F0BDC046FA
:10085000000C0050001802408018024000040050B4
:100860000008005000690840411E88417047002A76
:1008700002D0182281507047282281507047000012
:10088000054800687047C0461E48007802490A685B
:10089000101808607047C0469006002010B501246B
:1008A000200294490A6802430A60032000F00AF813
:1008B000002801D0204610BD00F026F80024204674
:1008C00010BDC046B0B505460E4801780124002988
:1008D00016D07D20C000FFF71DFC01468848006847
:1008E000FFF718FC00F06EFB032D09D8002807D194
:1008F0000024E0432946224600F020F881480560A4
:100900002046B0BDF000002082B0094841680122B5
:10091000114341604168114001910199110702683A
:100920000A430260006808400090009802B07047D7
:100930003C10024080B501F0FDF880BD80B501F0AB
:1009400005F980BDF0B581B0032569020F4E32680C
:100950008A430243326001214A020024904212D1AC
:1009600067480268706940050DD58F020620504324
:100970000749FFF7CFFB801C401E03D07169394245
:10098000FAD100E02C46204601B0F0BD00700040D6
:1009900040420F00F0B583B00D460121002800D180
:1009A000A5E0019102905348006807242040A84226
:1009B00014D250490868A043284308604E4EFFF700
:1009C0005FFF07464B4800682040A84206D0FFF76B
:1009D00057FFC01BB042F5D9032188E0029B18687D
:1009E0008107684E0CD5410703D5210332680A43BD
:1009F00032600F21090232688A43996811433160DD
:100A0000C00719D13B4800682040A84229D939497C
:100A10000868A04328430860374FFFF731FF0646B8
:100A2000344800682040A8421BD0FFF729FF801BF4
:100A3000B842F5D903215AE0586803282FD881001D
:100A400001A251584F4A8F46590A0008A50A0008CA
:100A5000AF0A0008B90A00081146083909684905B3
:100A60002CE0029A10784007464D05D520032968EE
:100A70008143D0680843286000F046F82968890956
:100A80003C220A401D4989581F220A40D0401C4977
:100A900008601C480068FFF715FF014627E0394A47
:100AA000516D0AE0114608390968890306E01146CC
:100AB00008390968890101E0916D8907019916D506
:100AC0001168A143014311600B4FFFF7D9FE0646A1
:100AD0002C4800683821014002984068C0008142DB
:100AE00090D0FFF7CDFE801BB842F1D90321084614
:100AF00003B0F0BD0020024088130000901E0008E3
:100B000014000020F400002010B51E4C2068800660
:100B1000400F06D0226838210A401B48082A07D116
:100B200010BD083C20688004410F1848C84010BD23
:100B300022680A40102A15D1616803220A40032A5C
:100B400000D0124861684906490F491CFFF7E2FAD4
:100B500061684904490E48436168490F491CFFF721
:100B6000D9FA10BD20680840202802D10120C00316
:100B700010BD20680840182801D0002010BD7D203D
:100B8000000210BD0810024000127A000024F40098
:100B9000F0B587B00127002800D1F8E1049705904F
:100BA0000078C007FD4E2CD10598007880074CD402
:100BB0000598007800070DD5B06838210140182944
:100BC00000D0A6E0306E800704D505988069002823
:100BD00000D1E1E105980078400700D45FE1B068FA
:100BE00038210140202900D0AAE0F06D800700D410
:100BF00052E105988068002800D04DE100200127CF
:100C00004BE1B068F16803273A468A433821014036
:100C100010204840821850425041082945D00028F1
:100C200043D105984268052000048242039200D116
:100C3000B8E0012001048A4200D1B9E032688A4359
:100C40003260810430688843B4E0B16838200840DD
:100C500010214140F26803273A4002235340CA184A
:100C60005142514100282BD0002929D1306801215F
:100C70008C02059BDA68002A00D1B8E00722D20274
:100C800090431A69024332600802316801433160BF
:100C9000FFF7F6FD05463068204200D0B7E0FFF7C9
:100CA000EFFD401B0228F6D971E13068800300D4C3
:100CB0007AE705984068002800D075E7049F66E150
:100CC00031684905059B03D5D968002900D1B9E0F1
:100CD0007F21090272688A435969090211437160D0
:100CE00000280DD10720C0023168814318690843EC
:100CF000306030688004400FAB49C140AB480160B0
:100D0000AB480068FFF7DEFD002800D150E7049FE4
:100D10003DE1306E05998969002900D181E001210A
:100D200008433066FFF7ACFD0546306E800700D5FE
:100D300050E7FFF7A5FD401B03270228F5D926E160
:100D4000012003900107F06B0840029006D1F06B80
:100D50000843F063F06B0840069006980191954CAB
:100D60002068C00510D4039807022068384320602B
:100D7000FFF786FD05462068384205D1FFF780FD64
:100D8000401B0228F7D975E005988468052C5BD0D4
:100D9000012C5DD0F06D03998843F065F06D04215E
:100DA000884358E00120810432680A43326001041C
:100DB00030680843306001204404FFF761FD0546B8
:100DC000039800280FD03068204200D0ECE6FFF7EF
:100DD00057FD401B6428F6D9D9E0FFF751FD401BB1
:100DE000642800D9D3E030682042F6D1DCE609025D
:100DF00088433060FFF744FD05463068204200D14B
:100E0000D6E6FFF73DFD401B0228F6D9BFE07F2064
:100E100000027168814305984069000208437060D0
:100E2000C6E6012188433066FFF72AFD0546306E8D
:100E3000800700D4CEE6FFF723FD401B03270228DE
:100E4000F5D9A4E0049FA2E0F06D04210143F1650F
:100E5000F06D03990843F065574FFFF711FD054604
:100E6000002C0FD0F06D80070FD4FFF709FD401B59
:100E7000B842F7D9002003270FE0FFF701FD401B20
:100E8000B842F7D8F06D8007F7D40298002803D154
:100E9000F06B01998843F0630120002877D0059812
:100EA000C469002C72D0B06838210140102903D1E8
:100EB000012C18D1049F6AE001273906306804919B
:100EC00088433060FFF7DCFC0546022C2CD10397E9
:100ED0007C063068204232D0FFF7D2FC401B03274B
:100EE0000228F6D953E0F06803210140059B1A6AF5
:100EF00091424FD1702101405A6A914250D17F21D5
:100F0000090201409A6A120291424BD11F21490401
:100F10000140DA6A9142049F39D10721490708400C
:100F2000196B884233D131E07C063068204229D0E9
:100F3000FFF7A6FC401B03270228F6D927E0F0683C
:100F40001F490140059F2037ADCF084310431902C8
:100F5000014329433943F160306804990843306004
:100F600003980007F1680143F160FFF789FC05462B
:100F7000306820420AD1FFF783FC401B0327022878
:100F8000F6D904E0F0680D490140F1600027F8B29D
:100F900007B0F0BD049FFAE7049FF8E70010024095
:100FA000049FF4E7049FF2E70024F40014000020FB
:100FB000F40000200070004088130000FCFFFEEFEA
:100FC0008C80C11F80B500F099FC80BD70477047D0
:100FD00070470000F0B53C22825C012A01D102205A
:100FE000F0BD02463C3202235370012313700068A7
:100FF00046688468384DA84201D0374604E00F2780
:101000003F05BE434F6837437026B7430E683E43E3
:101010004660A84202D0064DA84204D18025AC43C8
:10102000896821438160002010705370F0BDC04674
:1010300000040040B0B500281FD0044605463C35EA
:101040006878002804D100202870204600F018F8A5
:101050000220687001CC214600F0AEFC012028730C
:10106000A870E87028716871A871E87128726872B8
:10107000A872E87268700020B0BD0120B0BD000009
:1010800010B582B00068134988420ED012498842D8
:101090001ED10120C00211490A6802430A60096892
:1010A0000140019101980D240AE00120C0030B4981
:1010B0000A6802430A6009680140009100981324FD
:1010C000002120460A46FFF739FC2046FFF732FC94
:1010D00002B010BD00200040002C01404010024032
:1010E000F0B581B004463C20205C012801D10223E8
:1010F00060E026463C360220707001273770206879
:1011000082682F4B134083600A6800254F2A0EDC4B
:101110001F2A25DD202A27D0302A25D0402A4CD16D
:10112000CA68496800F0A8FC206840213DE06F2AA9
:101130001CDD7B039A4224D03B039A422B4637D0D6
:10114000702A3AD14A6800928A68CB681146009AA0
:1011500000F07CFC2068816877220A43826026E0E8
:10116000002A01D0102A28D111461EE0502A16D09C
:10117000602A22D1CA68496800F08FFC206860218B
:1011800013E04A6800928A68CB681146009A00F022
:101190005DFCB80321688A6802438A6007E0CA6878
:1011A000496800F069FC2068502100F05BFC2B4688
:1011B00035707770184601B0F0BD3B46F8E7C04681
:1011C0008800CEFF70470000B0B504460068016992
:1011D0008907554D16D5C168890713D52946FE31B3
:1011E0000161012121778069800703D02046FFF744
:1011F000E9FF05E0204600F099F8204600F0C0F82D
:101200000020207720680169490717D5C168490780
:1012100014D52946FC3101610221217780698005BE
:10122000800F03D02046FFF7CDFF05E0204600F0F9
:101230007DF8204600F0A4F800202077206801699E
:10124000090716D5C168090713D52946F831016188
:1012500004212177C069800703D02046FFF7B2FF41
:1012600005E0204600F062F8204600F089F80020F2
:10127000207720680169C90617D5C168C90614D549
:101280002946F031016108212177C0698005800F6E
:1012900003D02046FFF796FF05E0204600F046F811
:1012A000204600F06DF80020207720680169C9070A
:1012B00008D0C168C90705D02946FF310161204621
:1012C00000F05FF820680169090608D5C1680906C1
:1012D00005D52946803101612046FFF778FE206858
:1012E0000169C90506D5C168090603D5056120460F
:1012F000FFF76CFE20680169490608D5C1684906F8
:1013000005D52946C0310161204600F03BF8206830
:101310000169890607D5C168890604D5E0350561EC
:101320002046FFF755FEB0BDFFFEFFFF704770B5CA
:10133000002822D00C46054606463C367078002828
:1013400004D100203070284600F019F80220707097
:101350002868291D00F030FB2868016808229143A5
:10136000016001682143016001203073B070F070AA
:10137000307270727070002070BD012070BD7047B7
:10138000704770477047FEE780B50848103000F09E
:10139000FDFB80BD80B505480C3000F0F7FB80BD3B
:1013A00080B50248083000F0F1FB80BD4006002007
:1013B00010B50246EFF31083EFF3108072B6106899
:1013C000440107D40124E407204008431060002BA7
:1013D00003D103E00020002B00D010BD62B610BD89
:1013E000F0B587B000240694059404940394029405
:1013F00017480168012739430160006838400190AF
:101400000198052005073E02284631462246FFF78F
:101410002EFA0220059004970397029602AE284602
:101420003146FFF753F90497212000040390380355
:10143000029028463146FFF749F9072528462146FC
:101440002246FFF77BFA2846FFF774FA07B0F0BD93
:101450003410024010B50D48002181613F220C4B31
:101460007D24E400036042608160C4600161FFF795
:10147000E1FD002801D0FEF78FFE04480821FFF7A8
:1014800056FF002801D0FEF787FE10BD5001002056
:1014900000200040B0B588B01848802415210025F0
:1014A000174A24C0056041608560C16004610795EA
:1014B0000695059504950395029501950838FFF763
:1014C000B9FD002801D0FEF767FE0120000304905B
:1014D0000A4804A9FFF704FE002801D0FEF75CFECD
:1014E000039402950195054801A9FFF773FD0028B3
:1014F00001D0FEF751FE08B0B0BDC0460401002087
:10150000002C0140F0B58DB0FA48007804904720D7
:10151000C0430C900024082014210A911F21099136
:101520002B263622422701970292089203960596AF
:1015300006970790482529460B95FEF7EBFD0746D1
:101540000C9847435848C0190019007A00F07EFCF7
:101550005648C0190019007A00F078FC5448C019A8
:101560000019007A00F072FC0A982946FEF7D2FDB5
:1015700007460C9D6F434C48C0190019007D00F0D0
:1015800065FC4A48C0190019007D00F05FFC48481E
:10159000C0190019007D00F059FC09980B99FEF75D
:1015A000B9FD07466F434048C0190019C07F00F0DD
:1015B0004DFC3E48C0190019C07F00F047FC3C4874
:1015C000C0190019C07F00F041FC30460B9D294630
:1015D000FEF7A0FD07460C9847433348C019001991
:1015E000039E805D00F032FC3048C0190019805D18
:1015F00000F02CFC2E48C0190019805D00F026FC7C
:1016000008982946FEF786FD07460C9D6F4326483D
:10161000C0190019029E805D00F018FC2348C01913
:101620000019805D00F012FC2148C019069F0019C6
:10163000805D00F00BFC38460B99FEF76BFD06460B
:101640006E43194880190019019D405D00F0FEFBB2
:10165000164880190019405D00F0F8FB1448801905
:10166000059E0019405D00F0F1FB00F080F832208B
:10167000FEF758FF9F48007804998842079810D1D8
:101680007F1C0899491C0891761C0999491C0991ED
:101690000A99491C0A91401C611C472C0C4600D039
:1016A00045E70DB0F0BDC046A80000206000002056
:1016B00018000020F0B583B08E480078029000201A
:1016C000214E00900190009F01983D181224284659
:1016D0002146FEF71FFD705C00F0B8FB681C214638
:1016E000FEF718FD705C00F0B1FBA81C2146FEF768
:1016F00011FD705C00F0AAFB7E48007802998842D8
:101700001FD1F81C87B2112FDED900F030F87D20F0
:1017100084002046FEF706FF76480078029988424A
:101720000FD12046FEF7FEFE7248007802998842EB
:1017300007D10198C01C80B20190112801D8009FE8
:10174000C2E703B0F0BDC04600000020FEE7B0B520
:10175000052004070122150220462946FFF787F8D5
:10176000002220462946FFF782F8B0BD704780B5B9
:1017700005200007012109020022FFF778F880BD4B
:10178000F0B583B05B48007802900026C82211466D
:1017900015463723DB43062E1F4600D01746062E7C
:1017A0001C4600D00C460096062E00D02B461D4647
:1017B00000267F2100980140062901910DD82A4674
:1017C0007944097949008F44030C11151B20250029
:1017D0003846781EFF22114621E0384621462A4627
:1017E0001DE02146611EFF22104618E0521EFF2117
:1017F000084614E02146611E3846781EFF220EE09E
:10180000521E3846781EFF2109E0521E2146611EF5
:10181000FF2004E0521E2146611E3846781E07460E
:10182000C0B20C46C9B21546D2B200F0C3FA0520C8
:10183000FEF778FE2F4800780299884203D1701C89
:10184000C72E0646B5D30026019806280DD82A468D
:101850007844007940008744030C11151B202500B3
:101860003846781CFF22114621E0384621462A4698
:101870001DE02146611CFF22104618E0521CFF218A
:10188000084614E02146611C3846781CFF220EE011
:10189000521C3846781CFF2109E0521C2146611C6D
:1018A000FF2004E0521C2146611C3846781C074684
:1018B000C0B20C46C9B21546D2B200F07BFA052080
:1018C000FEF730FEEA4800780299884203D1701C86
:1018D000C72E0646B8D3E648007802998842009998
:1018E00006D1481C06293A460646214600D250E752
:1018F00003B0F0BD9C01002070470000B0B5401E51
:10190000010E01D00120B0BD054D68600024E04308
:10191000032100F01BF9AC60072028602046B0BD11
:1019200010E000E080B5FEF7AFFF80BDF0B591B0EC
:1019300004AC34212046FEF7E2FB00260396029613
:101940000196009601277802FEF7FCFF78071090B9
:1019500078040F9008200E900D9602250C950B959B
:101960004020099008963802079004952046FFF71A
:101970000FF900280CD103960296072000900195DC
:1019800068462946FFF706F8002801D111B0F0BDDE
:10199000FEF702FC7047000080B50248FFF714FC18
:1019A00080BDC0465001002080B50248FFF70CFC06
:1019B00080BDC0460401002010B504681D4A904255
:1019C00002D01D4B984204D170239C434B682343A3
:1019D00000E02346194CA04208DD90420CD0184C80
:1019E000A04209D0174CA04206D020E0124CA042E1
:1019F00002D0154CA0421AD103242402A343CC6880
:101A00001C4380239C434B69234303608B68C36260
:101A10000B688362904205D0094A904202D0094A7D
:101A2000904201D1096901630121416110BD1C4649
:101A3000E7E7C046002C014000040040FF2B0140B6
:101A4000004801400044014000200040B0B5FF24A0
:101A500024028568A54311431A020A432A4382607F
:101A6000B0BD00008268034B13400B4307211943AC
:101A70008160704788FFCFFFB0B5036A046A012513
:101A8000AC4304628469F025AC43120122438261B5
:101A90000A2293430B430362B0BD10B5036A1024BE
:101AA000A34303620F231B0384699C431203224355
:101AB000036A8261A022934309011943016210BDA8
:101AC000EFF31082EFF3108372B6C3785B0703D491
:101AD0000020002A04D104E001600120002A00D087
:101AE000704762B6704780B500F05EF880BD0000B8
:101AF000F0B581B001252C020C4E0D49304622462E
:101B0000FEF76EFB05200707384621462A46FEF7FA
:101B1000AEFE2036E21C30460549FEF761FB00228E
:101B200038462146FEF7A3FE01B0F0BD01EF0000EC
:101B3000FB1E0008002805D41F2108400121814018
:101B4000014801607047C04600E100E0002805D46C
:101B50000322034693430C4A9A1806E00F220240E0
:101B6000083A03239A43074BD2188007C00E890115
:101B7000C9B28140FF238340106898430843106036
:101B80007047C0461CED00E000E400E00146EFF3C2
:101B90001082EFF3108072B60868431C0B60002AB5
:101BA00000D0704762B670470146EFF31082EFF342
:101BB000108072B6034B98699961002A00D0704773
:101BC00062B670474006002070B50020C0430D4942
:101BD00018220D4B054604E0521E491C002A2546DA
:101BE0000ED00C7824026C400725ED4302E0344609
:101BF0006D1CF1D2660024B28442F8DC5E40F6E748
:101C0000A0B270BDD01E00082110000080B566484B
:101C10000078062828D8C0467844007940008744D8
:101C200003060C12181E2100FFF7AAFD1CE0FF207E
:101C30000022014600F0BEF816E00021FF20024617
:101C400000F0B8F810E00020FF210A4600F0B2F8DA
:101C50000AE0FF210020024600F0ACF804E0FFF7A4
:101C600051FC01E0FFF726FD1420FEF75BFC80BD70
:101C70009C01002070B5744D114C0026204600F0E8
:101C8000C2F801C5701C241D022E0646F6D370BD95
:101C900070B5FEF7DDFC1F2000F0A3F86A4D084C7C
:101CA00000260CCD01202146083DFEF79BFC08359F
:101CB0000834761CF0B20228F3D3FEF789FC70BD1D
:101CC00000F800080F200121FEF720FBFEF794FB2F
:101CD000EF2004020C4D482220462946FEF780FAE8
:101CE0002034492220462946FEF77AFAFEF7D6FD2F
:101CF000FFF71CFEFFF774FBFFF7CCFBFFF7AAFB17
:101D000000F004F8FEE7C046E81E000800F088F87E
:101D10004D4CA068002840D0401EA060FFF7B8FFDF
:101D200060682149087001200403052005071F4E43
:101D30001F4F3078002802D000F067F824E0FFF74A
:101D400065FF21E03888401C38806420FEF7EAFBFC
:101D50003888102818D3002038803078414241411B
:101D60003170002808D0FFF751FF28462146FEF7C2
:101D700079FD0028F9D107E000F047F82846214610
:101D8000FEF770FD0028F9D128462146FEF76AFDCE
:101D90000028D7D000203880CBE7034C00202070EB
:101DA00000F033F8FAE7C0469C0100200001002053
:101DB00002010020F0B581B014460D46064600270A
:101DC000284600F043F8304600F040F8204600F086
:101DD0003DF8FFF7CCFC781C052F0746F0D301B087
:101DE000F0BD80B586B01F280BD1012004901F20C4
:101DF0000390042002900220019001A805A9FEF79B
:101E0000A1FB06B080BD0068704780B5FF20014689
:101E10000246FFF7CFFF7D20C000FEF783FB80BDA9
:101E200080B5FFF727FF08480168AA2905D0AA2135
:101E3000016000F003F8FFF72BFF80BD024864212A
:101E4000002242608160704784060020B0B50446DD
:101E5000002506E0FFF74CFE681C6400072D0546D0
:101E600005D260B20028F5D5FFF771FCF4E7B0BDEC
:101E700002E008C8121F08C1002AFAD17047704753
:101E8000002001E001C1121F002AFBD170470000B1
:101E90000000000000000000000000000000000042
:101EA0000000000000000000000000000000000032
:101EB0000100000002000000030000000400000018
:101EC00006000000070000000800000009000000F4
:101ED0000100010140000000C0010020C0050020F9
:101EE00040060020000000002E2E2F436F72652F49
:101EF0005372632F6D61696E2E63002E2E2F417019
:101F0000702F5363722F5247422E6300401F000808
:101F10000000002000010000701E000840200008A2
:101F20000001002098090000801E00080000000049
:101F300000000000000000000000000000000000A1
:101F400000FFFFFF00FFFFFF00FF000000FF000099
:101F500000FF00000024F40019130E09050301001E
:101F6000000103060A0F151B222A333C46505A650E
:101F7000707B86919CA7B1BBC5CED6DEE5EBF0F5B4
:101F8000F9FBFDFEFEFDFBF8F4EFE9E3DCD4CBC288
:101F9000B8AEA4998E83786D62574D4339302820AE
:101FA000F1EBE5DED6CEC5BBB1A79C92867B706512
:101FB0005B50463C332B231B150F0A060301000020
:101FC000010305090D131920283039434D57626C60
:101FD00078838E99A3AEB8C2CBD3DBE3E9EFF4F8F4
:101FE000FBFDFEFEFDFBF9F57F8A95A0AAB5BFC8F3
:101FF000D1D9E0E7EDF2F6FAFCFEFEFEFCFAF6F2CD
:10200000EDE7E0D9D1C8BFB5AAA0958A7F74695E13
:10201000544940362D251E17110C080402000000FB
:102020000204080C11171E252D363F49545E6974B1
:10203000010000000400000000000000000000009B
:04000005080000C12E
:00000001FF
